{
  "address": "0x1530e5681372494830a8e183Bfe1B00e2197a37E",
  "abi": [
    {
      "inputs": [
        {
          "internalType": "address",
          "name": "_paymentToken",
          "type": "address"
        },
        {
          "internalType": "uint256",
          "name": "_pricePerCredit",
          "type": "uint256"
        },
        {
          "internalType": "address",
          "name": "_owner",
          "type": "address"
        },
        {
          "internalType": "address",
          "name": "_claimRecipient",
          "type": "address"
        }
      ],
      "stateMutability": "nonpayable",
      "type": "constructor"
    },
    {
      "inputs": [
        {
          "internalType": "uint256",
          "name": "commitment",
          "type": "uint256"
        }
      ],
      "name": "APICredits__CommitmentAlreadyUsed",
      "type": "error"
    },
    {
      "inputs": [],
      "name": "APICredits__EmptyTree",
      "type": "error"
    },
    {
      "inputs": [],
      "name": "APICredits__InsufficientStake",
      "type": "error"
    },
    {
      "inputs": [],
      "name": "APICredits__ZeroAmount",
      "type": "error"
    },
    {
      "inputs": [
        {
          "internalType": "address",
          "name": "target",
          "type": "address"
        }
      ],
      "name": "AddressEmptyCode",
      "type": "error"
    },
    {
      "inputs": [
        {
          "internalType": "address",
          "name": "account",
          "type": "address"
        }
      ],
      "name": "AddressInsufficientBalance",
      "type": "error"
    },
    {
      "inputs": [],
      "name": "DepthNotSupported",
      "type": "error"
    },
    {
      "inputs": [],
      "name": "FailedInnerCall",
      "type": "error"
    },
    {
      "inputs": [
        {
          "internalType": "address",
          "name": "owner",
          "type": "address"
        }
      ],
      "name": "OwnableInvalidOwner",
      "type": "error"
    },
    {
      "inputs": [
        {
          "internalType": "address",
          "name": "account",
          "type": "address"
        }
      ],
      "name": "OwnableUnauthorizedAccount",
      "type": "error"
    },
    {
      "inputs": [
        {
          "internalType": "address",
          "name": "token",
          "type": "address"
        }
      ],
      "name": "SafeERC20FailedOperation",
      "type": "error"
    },
    {
      "inputs": [],
      "name": "TreeIsFull",
      "type": "error"
    },
    {
      "inputs": [],
      "name": "ValueGreaterThanSnarkScalarField",
      "type": "error"
    },
    {
      "anonymous": false,
      "inputs": [
        {
          "indexed": true,
          "internalType": "address",
          "name": "oldRecipient",
          "type": "address"
        },
        {
          "indexed": true,
          "internalType": "address",
          "name": "newRecipient",
          "type": "address"
        }
      ],
      "name": "ClaimRecipientUpdated",
      "type": "event"
    },
    {
      "anonymous": false,
      "inputs": [
        {
          "indexed": true,
          "internalType": "address",
          "name": "user",
          "type": "address"
        },
        {
          "indexed": true,
          "internalType": "uint256",
          "name": "index",
          "type": "uint256"
        },
        {
          "indexed": false,
          "internalType": "uint256",
          "name": "commitment",
          "type": "uint256"
        },
        {
          "indexed": false,
          "internalType": "uint256",
          "name": "newStakedBalance",
          "type": "uint256"
        }
      ],
      "name": "CreditRegistered",
      "type": "event"
    },
    {
      "anonymous": false,
      "inputs": [
        {
          "indexed": false,
          "internalType": "uint256",
          "name": "index",
          "type": "uint256"
        },
        {
          "indexed": false,
          "internalType": "uint256",
          "name": "value",
          "type": "uint256"
        }
      ],
      "name": "NewLeaf",
      "type": "event"
    },
    {
      "anonymous": false,
      "inputs": [
        {
          "indexed": true,
          "internalType": "address",
          "name": "previousOwner",
          "type": "address"
        },
        {
          "indexed": true,
          "internalType": "address",
          "name": "newOwner",
          "type": "address"
        }
      ],
      "name": "OwnershipTransferred",
      "type": "event"
    },
    {
      "anonymous": false,
      "inputs": [
        {
          "indexed": true,
          "internalType": "address",
          "name": "to",
          "type": "address"
        },
        {
          "indexed": false,
          "internalType": "uint256",
          "name": "amount",
          "type": "uint256"
        }
      ],
      "name": "ServerClaimed",
      "type": "event"
    },
    {
      "anonymous": false,
      "inputs": [
        {
          "indexed": true,
          "internalType": "address",
          "name": "user",
          "type": "address"
        },
        {
          "indexed": false,
          "internalType": "uint256",
          "name": "amount",
          "type": "uint256"
        },
        {
          "indexed": false,
          "internalType": "uint256",
          "name": "newBalance",
          "type": "uint256"
        }
      ],
      "name": "Staked",
      "type": "event"
    },
    {
      "anonymous": false,
      "inputs": [
        {
          "indexed": true,
          "internalType": "address",
          "name": "user",
          "type": "address"
        },
        {
          "indexed": false,
          "internalType": "uint256",
          "name": "amount",
          "type": "uint256"
        },
        {
          "indexed": false,
          "internalType": "uint256",
          "name": "newBalance",
          "type": "uint256"
        }
      ],
      "name": "Unstaked",
      "type": "event"
    },
    {
      "inputs": [],
      "name": "MAX_DEPTH",
      "outputs": [
        {
          "internalType": "uint256",
          "name": "",
          "type": "uint256"
        }
      ],
      "stateMutability": "view",
      "type": "function"
    },
    {
      "inputs": [],
      "name": "claimRecipient",
      "outputs": [
        {
          "internalType": "address",
          "name": "",
          "type": "address"
        }
      ],
      "stateMutability": "view",
      "type": "function"
    },
    {
      "inputs": [
        {
          "internalType": "address",
          "name": "to",
          "type": "address"
        },
        {
          "internalType": "uint256",
          "name": "amount",
          "type": "uint256"
        }
      ],
      "name": "claimServer",
      "outputs": [],
      "stateMutability": "nonpayable",
      "type": "function"
    },
    {
      "inputs": [
        {
          "internalType": "uint256",
          "name": "",
          "type": "uint256"
        }
      ],
      "name": "commitmentUsed",
      "outputs": [
        {
          "internalType": "bool",
          "name": "",
          "type": "bool"
        }
      ],
      "stateMutability": "view",
      "type": "function"
    },
    {
      "inputs": [],
      "name": "depth",
      "outputs": [
        {
          "internalType": "uint256",
          "name": "",
          "type": "uint256"
        }
      ],
      "stateMutability": "view",
      "type": "function"
    },
    {
      "inputs": [],
      "name": "getTreeData",
      "outputs": [
        {
          "internalType": "uint256",
          "name": "size",
          "type": "uint256"
        },
        {
          "internalType": "uint256",
          "name": "treeDepth",
          "type": "uint256"
        },
        {
          "internalType": "uint256",
          "name": "treeRoot",
          "type": "uint256"
        }
      ],
      "stateMutability": "view",
      "type": "function"
    },
    {
      "inputs": [
        {
          "internalType": "uint256",
          "name": "level",
          "type": "uint256"
        }
      ],
      "name": "getZeroHash",
      "outputs": [
        {
          "internalType": "uint256",
          "name": "",
          "type": "uint256"
        }
      ],
      "stateMutability": "view",
      "type": "function"
    },
    {
      "inputs": [
        {
          "internalType": "uint256",
          "name": "_commitment",
          "type": "uint256"
        }
      ],
      "name": "isCommitmentUsed",
      "outputs": [
        {
          "internalType": "bool",
          "name": "",
          "type": "bool"
        }
      ],
      "stateMutability": "view",
      "type": "function"
    },
    {
      "inputs": [],
      "name": "owner",
      "outputs": [
        {
          "internalType": "address",
          "name": "",
          "type": "address"
        }
      ],
      "stateMutability": "view",
      "type": "function"
    },
    {
      "inputs": [],
      "name": "paymentToken",
      "outputs": [
        {
          "internalType": "contract IERC20",
          "name": "",
          "type": "address"
        }
      ],
      "stateMutability": "view",
      "type": "function"
    },
    {
      "inputs": [],
      "name": "pricePerCredit",
      "outputs": [
        {
          "internalType": "uint256",
          "name": "",
          "type": "uint256"
        }
      ],
      "stateMutability": "view",
      "type": "function"
    },
    {
      "inputs": [
        {
          "internalType": "uint256",
          "name": "_commitment",
          "type": "uint256"
        }
      ],
      "name": "register",
      "outputs": [],
      "stateMutability": "nonpayable",
      "type": "function"
    },
    {
      "inputs": [],
      "name": "renounceOwnership",
      "outputs": [],
      "stateMutability": "nonpayable",
      "type": "function"
    },
    {
      "inputs": [],
      "name": "root",
      "outputs": [
        {
          "internalType": "uint256",
          "name": "",
          "type": "uint256"
        }
      ],
      "stateMutability": "view",
      "type": "function"
    },
    {
      "inputs": [],
      "name": "serverClaimable",
      "outputs": [
        {
          "internalType": "uint256",
          "name": "",
          "type": "uint256"
        }
      ],
      "stateMutability": "view",
      "type": "function"
    },
    {
      "inputs": [
        {
          "internalType": "address",
          "name": "newRecipient",
          "type": "address"
        }
      ],
      "name": "setClaimRecipient",
      "outputs": [],
      "stateMutability": "nonpayable",
      "type": "function"
    },
    {
      "inputs": [
        {
          "internalType": "uint256",
          "name": "newPrice",
          "type": "uint256"
        }
      ],
      "name": "setPricePerCredit",
      "outputs": [],
      "stateMutability": "nonpayable",
      "type": "function"
    },
    {
      "inputs": [
        {
          "internalType": "uint256",
          "name": "amount",
          "type": "uint256"
        }
      ],
      "name": "stake",
      "outputs": [],
      "stateMutability": "nonpayable",
      "type": "function"
    },
    {
      "inputs": [
        {
          "internalType": "uint256",
          "name": "amount",
          "type": "uint256"
        },
        {
          "internalType": "uint256[]",
          "name": "commitments",
          "type": "uint256[]"
        }
      ],
      "name": "stakeAndRegister",
      "outputs": [],
      "stateMutability": "nonpayable",
      "type": "function"
    },
    {
      "inputs": [
        {
          "internalType": "address",
          "name": "",
          "type": "address"
        }
      ],
      "name": "stakedBalance",
      "outputs": [
        {
          "internalType": "uint256",
          "name": "",
          "type": "uint256"
        }
      ],
      "stateMutability": "view",
      "type": "function"
    },
    {
      "inputs": [
        {
          "internalType": "address",
          "name": "newOwner",
          "type": "address"
        }
      ],
      "name": "transferOwnership",
      "outputs": [],
      "stateMutability": "nonpayable",
      "type": "function"
    },
    {
      "inputs": [],
      "name": "tree",
      "outputs": [
        {
          "internalType": "uint256",
          "name": "depth",
          "type": "uint256"
        },
        {
          "internalType": "uint256",
          "name": "root",
          "type": "uint256"
        },
        {
          "internalType": "uint256",
          "name": "numberOfLeaves",
          "type": "uint256"
        },
        {
          "internalType": "bool",
          "name": "useDefaultZeroes",
          "type": "bool"
        }
      ],
      "stateMutability": "view",
      "type": "function"
    },
    {
      "inputs": [],
      "name": "treeSize",
      "outputs": [
        {
          "internalType": "uint256",
          "name": "",
          "type": "uint256"
        }
      ],
      "stateMutability": "view",
      "type": "function"
    },
    {
      "inputs": [
        {
          "internalType": "uint256",
          "name": "amount",
          "type": "uint256"
        }
      ],
      "name": "unstake",
      "outputs": [],
      "stateMutability": "nonpayable",
      "type": "function"
    }
  ],
  "transactionHash": "0xf16450feab87b623288b8083547ec1f6477835da1decccc7df56f62d0cbb5bf0",
  "args": [
    "0x9f86dB9fc6f7c9408e8Fda3Ff8ce4e78ac7a6b07",
    "2000000000000000000000",
    "0x44426C647c5C0d1e30aa9f965881E22739E566e9",
    "0x90eF2A9211A3E7CE788561E5af54C76B0Fa3aEd0"
  ],
  "numDeployments": 2,
  "solcInputHash": "c2c49cd9d37b0b139e1bacfee1baf41c",
  "bytecode": "0x60a060405234801561001057600080fd5b5060405161556038038061556083398101604081905261002f916121c1565b816001600160a01b03811661005f57604051631e4fbdf760e01b8152600060048201526024015b60405180910390fd5b610068816100fe565b506001600160a01b0381166100bf5760405162461bcd60e51b815260206004820152601460248201527f7a65726f20636c61696d20726563697069656e740000000000000000000000006044820152606401610056565b6001600160a01b038481166080526001849055600380546001600160a01b0319169183169190911790556100f56005601061014e565b50505050612282565b600080546001600160a01b038381166001600160a01b0319831681178455604051919092169283917f8be0079c531659141344cd1fd0a4f28419497f9722a3daafe3b4186f6b6457e09190a35050565b80158061015b5750602081115b156101795760405163362b442760e21b815260040160405180910390fd5b8082556000805b828160ff1610156101b65760ff8116600090815260038501602052604090208290556101ac82806101c3565b9150600101610180565b5060019092019190915550565b6000806101ce6101e8565b905060006101dd8286866117d8565b925050505b92915050565b6101f06120d4565b604051806040016040528060405180608001604052807f10dc6e9c006ea38b04b1e03b4bd9490c0d03f98929ca1d7fb56821fd19d3b6e781526020017f0c28145b6a44df3e0149b3d0a30b3bb599df9756d4dd9b84a86b38cfb45a740b81526020017e544b8338791518b2c7645a50392798b21f75bb60e3596170067d00141cac1581526020017f222c01175718386f2e2e82eb122789e352e105a3b8fa852613bc534433ee428b815250815260200160405180610800016040528060405180608001604052807f19b849f69450b06848da1d39bd5e4a4302bb86744edc26238b0878e269ed23e581526020017f265ddfe127dd51bd7239347b758f0a1320eb2cc7450acc1dad47f80c8dcf34d681526020017f199750ec472f1809e0f66a545e1e51624108ac845015c2aa3dfc36bab497d8aa81526020017f157ff3fe65ac7208110f06a5f74302b14d743ea25067f0ffd032f787c7f1cdf8815250815260200160405180608001604052807f2e49c43c4569dd9c5fd35ac45fca33f10b15c590692f8beefe18f4896ac9490281526020017f0e35fb89981890520d4aef2b6d6506c3cb2f0b6973c24fa82731345ffa2d1f1e81526020017f251ad47cb15c4f1105f109ae5e944f1ba9d9e7806d667ffec6fe723002e0b99681526020017f13da07dc64d428369873e97160234641f8beb56fdd05e5f3563fa39d9c22df4e815250815260200160405180608001604052807f0c009b84e650e6d23dc00c7dccef7483a553939689d350cd46e7b89055fd473881526020017f011f16b1c63a854f01992e3956f42d8b04eb650c6d535eb0203dec74befdca0681526020017f0ed69e5e383a688f209d9a561daa79612f3f78d0467ad45485df07093f36754981526020017f04dba94a7b0ce9e221acad41472b6bbe3aec507f5eb3d33f463672264c9f789b815250815260200160405180608001604052807f0a3f2637d840f3a16eb094271c9d237b6036757d4bb50bf7ce732ff1d4fa28e881526020017f259a666f129eea198f8a1c502fdb38fa39b1f075569564b6e54a485d1182323f81526020017f28bf7459c9b2f4c6d8e7d06a4ee3a47f7745d4271038e5157a32fdf7ede0d6a181526020017f0a1ca941f057037526ea200f489be8d4c37c85bbcce6a2aeec91bd6941432447815250815260200160405180608001604052807f0c6f8f958be0e93053d7fd4fc54512855535ed1539f051dcb43a26fd926361cf815260200160008152602001600081526020016000815250815260200160405180608001604052807f123106a93cd17578d426e8128ac9d90aa9e8a00708e296e084dd57e69caaf811815260200160008152602001600081526020016000815250815260200160405180608001604052807f26e1ba52ad9285d97dd3ab52f8e840085e8fa83ff1e8f1877b074867cd2dee75815260200160008152602001600081526020016000815250815260200160405180608001604052807f1cb55cad7bd133de18a64c5c47b9c97cbe4d8b7bf9e095864471537e6a4ae2c5815260200160008152602001600081526020016000815250815260200160405180608001604052807f1dcd73e46acd8f8e0e2c7ce04bde7f6d2a53043d5060a41c7143f08e6e9055d0815260200160008152602001600081526020016000815250815260200160405180608001604052807f011003e32f6d9c66f5852f05474a4def0cda294a0eb4e9b9b12b9bb4512e5574815260200160008152602001600081526020016000815250815260200160405180608001604052807f2b1e809ac1d10ab29ad5f20d03a57dfebadfe5903f58bafed7c508dd2287ae8c815260200160008152602001600081526020016000815250815260200160405180608001604052807f2539de1785b735999fb4dac35ee17ed0ef995d05ab2fc5faeaa69ae87bcec0a5815260200160008152602001600081526020016000815250815260200160405180608001604052807f0c246c5a2ef8ee0126497f222b3e0a0ef4e1c3d41c86d46e43982cb11d77951d815260200160008152602001600081526020016000815250815260200160405180608001604052807f192089c4974f68e95408148f7c0632edbb09e6a6ad1a1c2f3f0305f5d03b527b815260200160008152602001600081526020016000815250815260200160405180608001604052807f1eae0ad8ab68b2f06a0ee36eeb0d0c058529097d91096b756d8fdc2fb5a60d85815260200160008152602001600081526020016000815250815260200160405180608001604052807f179190e5d0e22179e46f8282872abc88db6e2fdc0dee99e69768bd98c5d06bfb815260200160008152602001600081526020016000815250815260200160405180608001604052807f29bb9e2c9076732576e9a81c7ac4b83214528f7db00f31bf6cafe794a9b3cd1c815260200160008152602001600081526020016000815250815260200160405180608001604052807f225d394e42207599403efd0c2464a90d52652645882aac35b10e590e6e691e08815260200160008152602001600081526020016000815250815260200160405180608001604052807f064760623c25c8cf753d238055b444532be13557451c087de09efd454b23fd59815260200160008152602001600081526020016000815250815260200160405180608001604052807f10ba3a0e01df92e87f301c4b716d8a394d67f4bf42a75c10922910a78f6b5b87815260200160008152602001600081526020016000815250815260200160405180608001604052807f0e070bf53f8451b24f9c6e96b0c2a801cb511bc0c242eb9d361b77693f21471c815260200160008152602001600081526020016000815250815260200160405180608001604052807f1b94cd61b051b04dd39755ff93821a73ccd6cb11d2491d8aa7f921014de252fb815260200160008152602001600081526020016000815250815260200160405180608001604052807f1d7cb39bafb8c744e148787a2e70230f9d4e917d5713bb050487b5aa7d74070b815260200160008152602001600081526020016000815250815260200160405180608001604052807f2ec93189bd1ab4f69117d0fe980c80ff8785c2961829f701bb74ac1f303b17db815260200160008152602001600081526020016000815250815260200160405180608001604052807f2db366bfdd36d277a692bb825b86275beac404a19ae07a9082ea46bd83517926815260200160008152602001600081526020016000815250815260200160405180608001604052807f062100eb485db06269655cf186a68532985275428450359adc99cec6960711b8815260200160008152602001600081526020016000815250815260200160405180608001604052807f0761d33c66614aaa570e7f1e8244ca1120243f92fa59e4f900c567bf41f5a59b815260200160008152602001600081526020016000815250815260200160405180608001604052807f20fc411a114d13992c2705aa034e3f315d78608a0f7de4ccf7a72e494855ad0d815260200160008152602001600081526020016000815250815260200160405180608001604052807f25b5c004a4bdfcb5add9ec4e9ab219ba102c67e8b3effb5fc3a30f317250bc5a815260200160008152602001600081526020016000815250815260200160405180608001604052807f23b1822d278ed632a494e58f6df6f5ed038b186d8474155ad87e7dff62b37f4b815260200160008152602001600081526020016000815250815260200160405180608001604052807f22734b4c5c3f9493606c4ba9012499bf0f14d13bfcfcccaa16102a29cc2f69e0815260200160008152602001600081526020016000815250815260200160405180608001604052807f26c0c8fe09eb30b7e27a74dc33492347e5bdff409aa3610254413d3fad795ce5815260200160008152602001600081526020016000815250815260200160405180608001604052807f070dd0ccb6bd7bbae88eac03fa1fbb26196be3083a809829bbd626df348ccad9815260200160008152602001600081526020016000815250815260200160405180608001604052807f12b6595bdb329b6fb043ba78bb28c3bec2c0a6de46d8c5ad6067c4ebfd4250da815260200160008152602001600081526020016000815250815260200160405180608001604052807f248d97d7f76283d63bec30e7a5876c11c06fca9b275c671c5e33d95bb7e8d729815260200160008152602001600081526020016000815250815260200160405180608001604052807f1a306d439d463b0816fc6fd64cc939318b45eb759ddde4aa106d15d9bd9baaaa815260200160008152602001600081526020016000815250815260200160405180608001604052807f28a8f8372e3c38daced7c00421cb4621f4f1b54ddc27821b0d62d3d6ec7c56cf815260200160008152602001600081526020016000815250815260200160405180608001604052807e94975717f9a8a8bb35152f24d43294071ce320c829f388bc852183e1e2ce7e815260200160008152602001600081526020016000815250815260200160405180608001604052807f04d5ee4c3aa78f7d80fde60d716480d3593f74d4f653ae83f4103246db2e8d65815260200160008152602001600081526020016000815250815260200160405180608001604052807f2a6cf5e9aa03d4336349ad6fb8ed2269c7bef54b8822cc76d08495c12efde187815260200160008152602001600081526020016000815250815260200160405180608001604052807f2304d31eaab960ba9274da43e19ddeb7f792180808fd6e43baae48d7efcba3f3815260200160008152602001600081526020016000815250815260200160405180608001604052807f03fd9ac865a4b2a6d5e7009785817249bff08a7e0726fcb4e1c11d39d199f0b0815260200160008152602001600081526020016000815250815260200160405180608001604052807eb7258ded52bbda2248404d55ee5044798afc3a209193073f7954d4d63b0b64815260200160008152602001600081526020016000815250815260200160405180608001604052807f159f81ada0771799ec38fca2d4bf65ebb13d3a74f3298db36272c5ca65e92d9a815260200160008152602001600081526020016000815250815260200160405180608001604052807f1ef90e67437fbc8550237a75bc28e3bb9000130ea25f0c5471e144cf4264431f815260200160008152602001600081526020016000815250815260200160405180608001604052807f1e65f838515e5ff0196b49aa41a2d2568df739bc176b08ec95a79ed82932e30d815260200160008152602001600081526020016000815250815260200160405180608001604052807f2b1b045def3a166cec6ce768d079ba74b18c844e570e1f826575c1068c94c33f815260200160008152602001600081526020016000815250815260200160405180608001604052807f0832e5753ceb0ff6402543b1109229c165dc2d73bef715e3f1c6e07c168bb173815260200160008152602001600081526020016000815250815260200160405180608001604052807f02f614e9cedfb3dc6b762ae0a37d41bab1b841c2e8b6451bc5a8e3c390b6ad16815260200160008152602001600081526020016000815250815260200160405180608001604052807f0e2427d38bd46a60dd640b8e362cad967370ebb777bedff40f6a0be27e7ed705815260200160008152602001600081526020016000815250815260200160405180608001604052807f0493630b7c670b6deb7c84d414e7ce79049f0ec098c3c7c50768bbe29214a53a815260200160008152602001600081526020016000815250815260200160405180608001604052807f22ead100e8e482674decdab17066c5a26bb1515355d5461a3dc06cc85327cea9815260200160008152602001600081526020016000815250815260200160405180608001604052807f25b3e56e655b42cdaae2626ed2554d48583f1ae35626d04de5084e0b6d2a6f16815260200160008152602001600081526020016000815250815260200160405180608001604052807f1e32752ada8836ef5837a6cde8ff13dbb599c336349e4c584b4fdc0a0cf6f9d0815260200160008152602001600081526020016000815250815260200160405180608001604052807f2fa2a871c15a387cc50f68f6f3c3455b23c00995f05078f672a9864074d412e5815260200160008152602001600081526020016000815250815260200160405180608001604052807f2f569b8a9a4424c9278e1db7311e889f54ccbf10661bab7fcd18e7c7a7d83505815260200160008152602001600081526020016000815250815260200160405180608001604052807f044cb455110a8fdd531ade530234c518a7df93f7332ffd2144165374b246b43d815260200160008152602001600081526020016000815250815260200160405180608001604052807f227808de93906d5d420246157f2e42b191fe8c90adfe118178ddc723a5319025815260200160008152602001600081526020016000815250815260200160405180608001604052807f02fcca2934e046bc623adead873579865d03781ae090ad4a8579d2e7a6800355815260200160008152602001600081526020016000815250815260200160405180608001604052807f0ef915f0ac120b876abccceb344a1d36bad3f3c5ab91a8ddcbec2e060d8befac815260200160008152602001600081526020016000815250815260200160405180608001604052807f1797130f4b7a3e1777eb757bc6f287f6ab0fb85f6be63b09f3b16ef2b1405d3881526020017f0a76225dc04170ae3306c85abab59e608c7f497c20156d4d36c668555decc6e581526020017f1fffb9ec1992d66ba1e77a7b93209af6f8fa76d48acb664796174b5326a31a5c81526020017f25721c4fc15a3f2853b57c338fa538d85f8fbba6c6b9c6090611889b797b9c5f815250815260200160405180608001604052807f0c817fd42d5f7a41215e3d07ba197216adb4c3790705da95eb63b982bfcaf75a81526020017f13abe3f5239915d39f7e13c2c24970b6df8cf86ce00a22002bc15866e52b5a9681526020017f2106feea546224ea12ef7f39987a46c85c1bc3dc29bdbd7a92cd60acb4d391ce81526020017f21ca859468a746b6aaa79474a37dab49f1ca5a28c748bc7157e1b3345bb0f959815250815260200160405180608001604052807f05ccd6255c1e6f0c5cf1f0df934194c62911d14d0321662a8f1a48999e34185b81526020017f0f0e34a64b70a626e464d846674c4c8816c4fb267fe44fe6ea28678cb09490a481526020017f0558531a4e25470c6157794ca36d0e9647dbfcfe350d64838f5b1a8a2de0d4bf81526020017f09d3dca9173ed2faceea125157683d18924cadad3f655a60b72f5864961f1455815250815260200160405180608001604052807f0328cbd54e8c0913493f866ed03d218bf23f92d68aaec48617d4c722e5bd433581526020017f2bf07216e2aff0a223a487b1a7094e07e79e7bcc9798c648ee3347dd5329d34b81526020017f1daf345a58006b736499c583cb76c316d6f78ed6a6dffc82111e11a63fe412df81526020017f176563472456aaa746b694c60e1823611ef39039b2edc7ff391e6f2293d2c404815250815250815250905090565b6040805160028082526060820183526000928392919060208301908036833701905050905083816000815181106118115761181161220e565b60200260200101818152505082816001815181106118315761183161220e565b602090810291909101015261184a858260026000611853565b95945050505050565b60008061186f61186986516118de60201b60201c565b876118e4565b905060005b85518110156118b957848110156118b1576118b186828151811061189a5761189a61220e565b60200260200101518361198660201b90919060201c565b600101611874565b5082156118cb576118cb816001611986565b6118d481611a14565b9695505050505050565b60401b90565b6118ec6120f9565b60006040518060c0016040528085815260200160405180606001604052806000815260200160008152602001600081525081526020016040518060800160405280600081526020016000815260200160008152602001600081525081526020016000815260200160001515815260200184815250905083816040015160036004811061197a5761197a61220e565b60200201529392505050565b816080015115801561199c575060038260600151145b156119bb576119aa82611b2c565b506020820151526001606090910152565b81608001511580156119d257506003826060015114155b15611a10578082602001518360600151600381106119f2576119f261220e565b602002015260608201805160019190611a0c90839061223a565b9052505b5050565b60008160800151611a83576000611a2a83611b2c565b60016080850152905060005b6003811015611a7957818160038110611a5157611a5161220e565b602002015184602001518260038110611a6c57611a6c61220e565b6020020152600101611a36565b5050600360608301525b60208201515160015b6003811015611aec578360600151811015611ae45783602001518160038110611ab757611ab761220e565b60200201518460200151600183611ace919061224d565b60038110611ade57611ade61220e565b60200201525b600101611a8c565b50600183606001818151611b00919061224d565b905250602083015160608401516000919060038110611b2157611b2161220e565b602002015292915050565b611b3461213b565b60005b6003811015611b715782606001518110611b6957600083602001518260038110611b6357611b6361220e565b60200201525b600101611b37565b5060005b6003811015611be057611bbd83602001518260038110611b9757611b9761220e565b602002015184604001518360048110611bb257611bb261220e565b602002015190611c6d565b83604001518260048110611bd357611bd361220e565b6020020152600101611b75565b50604082015160a08301518051602090910151611bfe929190611c9a565b6040808401919091528051606081018252600080825260208201819052918101829052905b6003811015611c665783604001518160048110611c4257611c4261220e565b6020020151828260038110611c5957611c5961220e565b6020020152600101611c23565b5092915050565b60007f30644e72e131a029b85045b68181585d2833e84879b9709143e1f593f00000018284089392505050565b611ca2612159565b600060405180608001604052806000815260200160008152602001600081526020016000815250905060005b6004811015611d0d57858160048110611ce957611ce961220e565b6020020151828260048110611d0057611d0061220e565b6020020152600101611cce565b50611d1781611e08565b6000611d2560026008612260565b905060005b81811015611d5757611d3d838683611f02565b611d4683611f75565b611d4f83611e08565b600101611d2a565b506000611d6560388361223a565b9050815b81811015611dbb57611d94868260408110611d8657611d8661220e565b602002015151856000611bb2565b8452611da78460005b6020020151611fb5565b8452611db38488611fdf565b600101611d69565b506000611dca6038600861223a565b9050815b81811015611dfb57611de1858883611f02565b611dea85611f75565b611df385611e08565b600101611dce565b5092979650505050505050565b6000611e1d8260016020020151836000611bb2565b90506000611e348360036020020151846002611bb2565b90506000611e4b8460016020020151856001611bb2565b9050611e578183611c6d565b90506000611e6e8560036020020151866003611bb2565b9050611e7a8185611c6d565b90506000611e888480611c6d565b9050611e948180611c6d565b9050611ea08183611c6d565b90506000611eae8680611c6d565b9050611eba8180611c6d565b9050611ec68185611c6d565b90506000611ed48483611c6d565b90506000611ee28685611c6d565b918952506020880191909152604087015260609095019490945250505050565b60005b6004811015611f6f57611f50838360408110611f2357611f2361220e565b60200201518260048110611f3957611f3961220e565b6020020151858360048110611bb257611bb261220e565b848260048110611f6257611f6261220e565b6020020152600101611f05565b50505050565b60005b6004811015611a1057611f96828260048110611d9d57611d9d61220e565b828260048110611fa857611fa861220e565b6020020152600101611f78565b600080611fc283806120a7565b9050611fd883611fd283806120a7565b906120a7565b9392505050565b6000805b60048110156120175761200d8482600481106120015761200161220e565b60200201518390611c6d565b9150600101611fe3565b5060005b6004811015611f6f5761205b8382600481106120395761203961220e565b60200201518583600481106120505761205061220e565b6020020151906120a7565b84826004811061206d5761206d61220e565b602002015261208882858360048110611bb257611bb261220e565b84826004811061209a5761209a61220e565b602002015260010161201b565b60007f30644e72e131a029b85045b68181585d2833e84879b9709143e1f593f00000018284099392505050565b60405180604001604052806120e7612159565b81526020016120f4612177565b905290565b6040518060c001604052806000815260200161211361213b565b8152602001612120612159565b815260006020820181905260408201526060016120f46120d4565b60405180606001604052806003906020820280368337509192915050565b60405180608001604052806004906020820280368337509192915050565b6040518061080001604052806040905b61218f612159565b8152602001906001900390816121875790505090565b80516001600160a01b03811681146121bc57600080fd5b919050565b600080600080608085870312156121d757600080fd5b6121e0856121a5565b9350602085015192506121f5604086016121a5565b9150612203606086016121a5565b905092959194509250565b634e487b7160e01b600052603260045260246000fd5b634e487b7160e01b600052601160045260246000fd5b808201808211156101e2576101e2612224565b818103818111156101e2576101e2612224565b60008261227d57634e487b7160e01b600052601260045260246000fd5b500490565b6080516132a06122c0600039600081816101da015281816104650152818161053d01528181610684015281816108530152610b6f01526132a06000f3fe608060405234801561001057600080fd5b50600436106101585760003560e01c8063845828ad116100c3578063d52322831161007c578063d523228314610309578063ebf0c71714610329578063f207564e14610331578063f2fde38b14610344578063f3ab90c314610357578063fd54b2281461036057600080fd5b8063845828ad1461029f5780638d1ddfb1146102b25780638da5cb5b146102ba578063a27154ba146102cb578063a513fc93146102d3578063a694fc3a146102f657600080fd5b8063553b745011610115578063553b7450146102225780636021726714610235578063631c56ef1461026357806363f0eee21461026b578063715018a61461027457806375352e751461027c57600080fd5b806305e105b91461015d5780632bb411ff146101955780632e17de78146101c05780633013ce29146101d557806349480413146101fc5780634979a72a1461020f575b600080fd5b61018061016b366004612fa0565b600b6020526000908152604090205460ff1681565b60405190151581526020015b60405180910390f35b6003546101a8906001600160a01b031681565b6040516001600160a01b03909116815260200161018c565b6101d36101ce366004612fa0565b61039b565b005b6101a87f000000000000000000000000000000000000000000000000000000000000000081565b6101d361020a366004612fd5565b61048f565b6101d361021d366004612fa0565b610568565b6101d3610230366004612fff565b6105b7565b610255610243366004613080565b60026020526000908152604090205481565b60405190815260200161018c565b600554610255565b61025560045481565b6101d361072b565b61018061028a366004612fa0565b6000908152600b602052604090205460ff1690565b6101d36102ad366004613080565b61073f565b600754610255565b6000546001600160a01b03166101a8565b610255601081565b6102db6107e8565b6040805193845260208401929092529082015260600161018c565b6101d3610304366004612fa0565b610825565b610255610317366004612fa0565b60009081526008602052604090205490565b600654610255565b6101d361033f366004612fa0565b6108ea565b6101d3610352366004613080565b610925565b61025560015481565b600554600654600754600a546103799392919060ff1684565b604080519485526020850193909352918301521515606082015260800161018c565b806000036103bc576040516372fde4ad60e01b815260040160405180910390fd5b336000908152600260205260409020548111156103ec576040516333b8c92160e01b815260040160405180910390fd5b336000908152600260205260408120805483929061040b9084906130b1565b909155505033600081815260026020908152604091829020548251858152918201527f7fc4727e062e336010f2c282598ef5f14facb3de68cf8195c2f23e1454b2b74e910160405180910390a261048c6001600160a01b037f0000000000000000000000000000000000000000000000000000000000000000163383610960565b50565b6104976109c4565b806000036104b8576040516372fde4ad60e01b815260040160405180910390fd5b6004548111156104db576040516333b8c92160e01b815260040160405180910390fd5b80600460008282546104ed91906130b1565b90915550506040518181526001600160a01b038316907f9f3d007ff7e22f6527af11318e7e2ddf9f00011d0940129e59e0b265eed8db7f9060200160405180910390a26105646001600160a01b037f0000000000000000000000000000000000000000000000000000000000000000168383610960565b5050565b6105706109c4565b600081116105b25760405162461bcd60e51b815260206004820152600a6024820152697a65726f20707269636560b01b60448201526064015b60405180910390fd5b600155565b826000036105d8576040516372fde4ad60e01b815260040160405180910390fd5b806106165760405162461bcd60e51b815260206004820152600e60248201526d6e6f20636f6d6d69746d656e747360901b60448201526064016105a9565b6001546106249082906130c4565b8310156106735760405162461bcd60e51b815260206004820152601960248201527f636f6d6d69746d656e7420636f756e74206d69736d617463680000000000000060448201526064016105a9565b6003546106af906001600160a01b037f0000000000000000000000000000000000000000000000000000000000000000811691339116866109f1565b6003546040518481526001600160a01b03909116907f9f3d007ff7e22f6527af11318e7e2ddf9f00011d0940129e59e0b265eed8db7f9060200160405180910390a260005b818110156107255761071d838383818110610711576107116130db565b90506020020135610a2a565b6001016106f4565b50505050565b6107336109c4565b61073d6000610a7f565b565b6107476109c4565b6001600160a01b03811661078c5760405162461bcd60e51b815260206004820152600c60248201526b7a65726f206164647265737360a01b60448201526064016105a9565b6003546040516001600160a01b038084169216907f31186c7c9b04e70e222cb16e5c91fc93af8029b64775231d90e81b0ac2d9d26490600090a3600380546001600160a01b0319166001600160a01b0392909216919091179055565b600080600060056002015460000361081357604051633287af3b60e01b815260040160405180910390fd5b50506007546005546006549193909250565b80600003610846576040516372fde4ad60e01b815260040160405180910390fd5b61087b6001600160a01b037f0000000000000000000000000000000000000000000000000000000000000000163330846109f1565b336000908152600260205260408120805483929061089a9084906130f1565b909155505033600081815260026020908152604091829020548251858152918201527f1449c6dd7851abc30abf37f57715f492010519147cc2652fbc38202c18a6ee90910160405180910390a250565b60015433600090815260026020526040902054101561091c576040516333b8c92160e01b815260040160405180910390fd5b61048c81610acf565b61092d6109c4565b6001600160a01b03811661095757604051631e4fbdf760e01b8152600060048201526024016105a9565b61048c81610a7f565b6040516001600160a01b038381166024830152604482018390526109bf91859182169063a9059cbb906064015b604051602081830303815290604052915060e01b6020820180516001600160e01b038381831617835250505050610c00565b505050565b6000546001600160a01b0316331461073d5760405163118cdaa760e01b81523360048201526024016105a9565b6040516001600160a01b0384811660248301528381166044830152606482018390526107259186918216906323b872dd9060840161098d565b6000818152600b602052604090205460ff1615610a5d57604051634fc2841960e01b8152600481018290526024016105a9565b6000818152600b60205260409020805460ff1916600117905561048c81610c63565b600080546001600160a01b038381166001600160a01b0319831681178455604051919092169283917f8be0079c531659141344cd1fd0a4f28419497f9722a3daafe3b4186f6b6457e09190a35050565b600154336000908152600260205260409020541015610b01576040516333b8c92160e01b815260040160405180910390fd5b6000818152600b602052604090205460ff1615610b3457604051634fc2841960e01b8152600481018290526024016105a9565b6001543360009081526002602052604081208054909190610b569084906130b1565b9091555050600354600154610b99916001600160a01b037f0000000000000000000000000000000000000000000000000000000000000000811692911690610960565b6003546001546040519081526001600160a01b03909116907f9f3d007ff7e22f6527af11318e7e2ddf9f00011d0940129e59e0b265eed8db7f9060200160405180910390a26000818152600b60205260409020805460ff1916600117905561048c81610c63565b6000610c156001600160a01b03841683610cfa565b90508051600014158015610c3a575080806020019051810190610c389190613104565b155b156109bf57604051635274afe760e01b81526001600160a01b03841660048201526024016105a9565b600754610c71600583610d11565b5060408051828152602081018490527f83086dd2f9a7759c568afebf9730985f32eada5336224c32f153e8089d8f5ea7910160405180910390a133600081815260026020908152604091829020548251868152918201528392917f7de7691ba02c3c903aa6686e4a566130f54d23b424ef7ab590f865a6027e1056910160405180910390a35050565b6060610d0883836000610e64565b90505b92915050565b81546000907f30644e72e131a029b85045b68181585d2833e84879b9709143e1f593f00000018310610d565760405163461b9c6d60e11b815260040160405180910390fd5b610d6181600261320d565b846002015410610d8457604051633b5ccb4360e21b815260040160405180910390fd5b60028401548360005b838160ff161015610e385782600116600003610de85760408051808201825283815260ff8316600081815260038b016020908152848220548185015291815260048b0190915291909120610de2916002612e7c565b50610e03565b60ff8116600090815260048801602052604090208290600101555b60ff8116600090815260048801602052604090208054600190910154610e299190610f03565b600193841c9390925001610d8d565b506001808701829055600287018054600090610e559084906130f1565b90915550909695505050505050565b606081471015610e895760405163cd78605960e01b81523060048201526024016105a9565b600080856001600160a01b03168486604051610ea59190613219565b60006040518083038185875af1925050503d8060008114610ee2576040519150601f19603f3d011682016040523d82523d6000602084013e610ee7565b606091505b5091509150610ef7868383610f2a565b925050505b9392505050565b600080610f0e610f86565b90506000610f1d828686612576565b9050805b95945050505050565b606082610f3f57610f3a826125e9565b610efc565b8151158015610f5657506001600160a01b0384163b155b15610f7f57604051639996b31560e01b81526001600160a01b03851660048201526024016105a9565b5080610efc565b610f8e612eba565b604051806040016040528060405180608001604052807f10dc6e9c006ea38b04b1e03b4bd9490c0d03f98929ca1d7fb56821fd19d3b6e781526020017f0c28145b6a44df3e0149b3d0a30b3bb599df9756d4dd9b84a86b38cfb45a740b81526020017e544b8338791518b2c7645a50392798b21f75bb60e3596170067d00141cac1581526020017f222c01175718386f2e2e82eb122789e352e105a3b8fa852613bc534433ee428b815250815260200160405180610800016040528060405180608001604052807f19b849f69450b06848da1d39bd5e4a4302bb86744edc26238b0878e269ed23e581526020017f265ddfe127dd51bd7239347b758f0a1320eb2cc7450acc1dad47f80c8dcf34d681526020017f199750ec472f1809e0f66a545e1e51624108ac845015c2aa3dfc36bab497d8aa81526020017f157ff3fe65ac7208110f06a5f74302b14d743ea25067f0ffd032f787c7f1cdf8815250815260200160405180608001604052807f2e49c43c4569dd9c5fd35ac45fca33f10b15c590692f8beefe18f4896ac9490281526020017f0e35fb89981890520d4aef2b6d6506c3cb2f0b6973c24fa82731345ffa2d1f1e81526020017f251ad47cb15c4f1105f109ae5e944f1ba9d9e7806d667ffec6fe723002e0b99681526020017f13da07dc64d428369873e97160234641f8beb56fdd05e5f3563fa39d9c22df4e815250815260200160405180608001604052807f0c009b84e650e6d23dc00c7dccef7483a553939689d350cd46e7b89055fd473881526020017f011f16b1c63a854f01992e3956f42d8b04eb650c6d535eb0203dec74befdca0681526020017f0ed69e5e383a688f209d9a561daa79612f3f78d0467ad45485df07093f36754981526020017f04dba94a7b0ce9e221acad41472b6bbe3aec507f5eb3d33f463672264c9f789b815250815260200160405180608001604052807f0a3f2637d840f3a16eb094271c9d237b6036757d4bb50bf7ce732ff1d4fa28e881526020017f259a666f129eea198f8a1c502fdb38fa39b1f075569564b6e54a485d1182323f81526020017f28bf7459c9b2f4c6d8e7d06a4ee3a47f7745d4271038e5157a32fdf7ede0d6a181526020017f0a1ca941f057037526ea200f489be8d4c37c85bbcce6a2aeec91bd6941432447815250815260200160405180608001604052807f0c6f8f958be0e93053d7fd4fc54512855535ed1539f051dcb43a26fd926361cf815260200160008152602001600081526020016000815250815260200160405180608001604052807f123106a93cd17578d426e8128ac9d90aa9e8a00708e296e084dd57e69caaf811815260200160008152602001600081526020016000815250815260200160405180608001604052807f26e1ba52ad9285d97dd3ab52f8e840085e8fa83ff1e8f1877b074867cd2dee75815260200160008152602001600081526020016000815250815260200160405180608001604052807f1cb55cad7bd133de18a64c5c47b9c97cbe4d8b7bf9e095864471537e6a4ae2c5815260200160008152602001600081526020016000815250815260200160405180608001604052807f1dcd73e46acd8f8e0e2c7ce04bde7f6d2a53043d5060a41c7143f08e6e9055d0815260200160008152602001600081526020016000815250815260200160405180608001604052807f011003e32f6d9c66f5852f05474a4def0cda294a0eb4e9b9b12b9bb4512e5574815260200160008152602001600081526020016000815250815260200160405180608001604052807f2b1e809ac1d10ab29ad5f20d03a57dfebadfe5903f58bafed7c508dd2287ae8c815260200160008152602001600081526020016000815250815260200160405180608001604052807f2539de1785b735999fb4dac35ee17ed0ef995d05ab2fc5faeaa69ae87bcec0a5815260200160008152602001600081526020016000815250815260200160405180608001604052807f0c246c5a2ef8ee0126497f222b3e0a0ef4e1c3d41c86d46e43982cb11d77951d815260200160008152602001600081526020016000815250815260200160405180608001604052807f192089c4974f68e95408148f7c0632edbb09e6a6ad1a1c2f3f0305f5d03b527b815260200160008152602001600081526020016000815250815260200160405180608001604052807f1eae0ad8ab68b2f06a0ee36eeb0d0c058529097d91096b756d8fdc2fb5a60d85815260200160008152602001600081526020016000815250815260200160405180608001604052807f179190e5d0e22179e46f8282872abc88db6e2fdc0dee99e69768bd98c5d06bfb815260200160008152602001600081526020016000815250815260200160405180608001604052807f29bb9e2c9076732576e9a81c7ac4b83214528f7db00f31bf6cafe794a9b3cd1c815260200160008152602001600081526020016000815250815260200160405180608001604052807f225d394e42207599403efd0c2464a90d52652645882aac35b10e590e6e691e08815260200160008152602001600081526020016000815250815260200160405180608001604052807f064760623c25c8cf753d238055b444532be13557451c087de09efd454b23fd59815260200160008152602001600081526020016000815250815260200160405180608001604052807f10ba3a0e01df92e87f301c4b716d8a394d67f4bf42a75c10922910a78f6b5b87815260200160008152602001600081526020016000815250815260200160405180608001604052807f0e070bf53f8451b24f9c6e96b0c2a801cb511bc0c242eb9d361b77693f21471c815260200160008152602001600081526020016000815250815260200160405180608001604052807f1b94cd61b051b04dd39755ff93821a73ccd6cb11d2491d8aa7f921014de252fb815260200160008152602001600081526020016000815250815260200160405180608001604052807f1d7cb39bafb8c744e148787a2e70230f9d4e917d5713bb050487b5aa7d74070b815260200160008152602001600081526020016000815250815260200160405180608001604052807f2ec93189bd1ab4f69117d0fe980c80ff8785c2961829f701bb74ac1f303b17db815260200160008152602001600081526020016000815250815260200160405180608001604052807f2db366bfdd36d277a692bb825b86275beac404a19ae07a9082ea46bd83517926815260200160008152602001600081526020016000815250815260200160405180608001604052807f062100eb485db06269655cf186a68532985275428450359adc99cec6960711b8815260200160008152602001600081526020016000815250815260200160405180608001604052807f0761d33c66614aaa570e7f1e8244ca1120243f92fa59e4f900c567bf41f5a59b815260200160008152602001600081526020016000815250815260200160405180608001604052807f20fc411a114d13992c2705aa034e3f315d78608a0f7de4ccf7a72e494855ad0d815260200160008152602001600081526020016000815250815260200160405180608001604052807f25b5c004a4bdfcb5add9ec4e9ab219ba102c67e8b3effb5fc3a30f317250bc5a815260200160008152602001600081526020016000815250815260200160405180608001604052807f23b1822d278ed632a494e58f6df6f5ed038b186d8474155ad87e7dff62b37f4b815260200160008152602001600081526020016000815250815260200160405180608001604052807f22734b4c5c3f9493606c4ba9012499bf0f14d13bfcfcccaa16102a29cc2f69e0815260200160008152602001600081526020016000815250815260200160405180608001604052807f26c0c8fe09eb30b7e27a74dc33492347e5bdff409aa3610254413d3fad795ce5815260200160008152602001600081526020016000815250815260200160405180608001604052807f070dd0ccb6bd7bbae88eac03fa1fbb26196be3083a809829bbd626df348ccad9815260200160008152602001600081526020016000815250815260200160405180608001604052807f12b6595bdb329b6fb043ba78bb28c3bec2c0a6de46d8c5ad6067c4ebfd4250da815260200160008152602001600081526020016000815250815260200160405180608001604052807f248d97d7f76283d63bec30e7a5876c11c06fca9b275c671c5e33d95bb7e8d729815260200160008152602001600081526020016000815250815260200160405180608001604052807f1a306d439d463b0816fc6fd64cc939318b45eb759ddde4aa106d15d9bd9baaaa815260200160008152602001600081526020016000815250815260200160405180608001604052807f28a8f8372e3c38daced7c00421cb4621f4f1b54ddc27821b0d62d3d6ec7c56cf815260200160008152602001600081526020016000815250815260200160405180608001604052807e94975717f9a8a8bb35152f24d43294071ce320c829f388bc852183e1e2ce7e815260200160008152602001600081526020016000815250815260200160405180608001604052807f04d5ee4c3aa78f7d80fde60d716480d3593f74d4f653ae83f4103246db2e8d65815260200160008152602001600081526020016000815250815260200160405180608001604052807f2a6cf5e9aa03d4336349ad6fb8ed2269c7bef54b8822cc76d08495c12efde187815260200160008152602001600081526020016000815250815260200160405180608001604052807f2304d31eaab960ba9274da43e19ddeb7f792180808fd6e43baae48d7efcba3f3815260200160008152602001600081526020016000815250815260200160405180608001604052807f03fd9ac865a4b2a6d5e7009785817249bff08a7e0726fcb4e1c11d39d199f0b0815260200160008152602001600081526020016000815250815260200160405180608001604052807eb7258ded52bbda2248404d55ee5044798afc3a209193073f7954d4d63b0b64815260200160008152602001600081526020016000815250815260200160405180608001604052807f159f81ada0771799ec38fca2d4bf65ebb13d3a74f3298db36272c5ca65e92d9a815260200160008152602001600081526020016000815250815260200160405180608001604052807f1ef90e67437fbc8550237a75bc28e3bb9000130ea25f0c5471e144cf4264431f815260200160008152602001600081526020016000815250815260200160405180608001604052807f1e65f838515e5ff0196b49aa41a2d2568df739bc176b08ec95a79ed82932e30d815260200160008152602001600081526020016000815250815260200160405180608001604052807f2b1b045def3a166cec6ce768d079ba74b18c844e570e1f826575c1068c94c33f815260200160008152602001600081526020016000815250815260200160405180608001604052807f0832e5753ceb0ff6402543b1109229c165dc2d73bef715e3f1c6e07c168bb173815260200160008152602001600081526020016000815250815260200160405180608001604052807f02f614e9cedfb3dc6b762ae0a37d41bab1b841c2e8b6451bc5a8e3c390b6ad16815260200160008152602001600081526020016000815250815260200160405180608001604052807f0e2427d38bd46a60dd640b8e362cad967370ebb777bedff40f6a0be27e7ed705815260200160008152602001600081526020016000815250815260200160405180608001604052807f0493630b7c670b6deb7c84d414e7ce79049f0ec098c3c7c50768bbe29214a53a815260200160008152602001600081526020016000815250815260200160405180608001604052807f22ead100e8e482674decdab17066c5a26bb1515355d5461a3dc06cc85327cea9815260200160008152602001600081526020016000815250815260200160405180608001604052807f25b3e56e655b42cdaae2626ed2554d48583f1ae35626d04de5084e0b6d2a6f16815260200160008152602001600081526020016000815250815260200160405180608001604052807f1e32752ada8836ef5837a6cde8ff13dbb599c336349e4c584b4fdc0a0cf6f9d0815260200160008152602001600081526020016000815250815260200160405180608001604052807f2fa2a871c15a387cc50f68f6f3c3455b23c00995f05078f672a9864074d412e5815260200160008152602001600081526020016000815250815260200160405180608001604052807f2f569b8a9a4424c9278e1db7311e889f54ccbf10661bab7fcd18e7c7a7d83505815260200160008152602001600081526020016000815250815260200160405180608001604052807f044cb455110a8fdd531ade530234c518a7df93f7332ffd2144165374b246b43d815260200160008152602001600081526020016000815250815260200160405180608001604052807f227808de93906d5d420246157f2e42b191fe8c90adfe118178ddc723a5319025815260200160008152602001600081526020016000815250815260200160405180608001604052807f02fcca2934e046bc623adead873579865d03781ae090ad4a8579d2e7a6800355815260200160008152602001600081526020016000815250815260200160405180608001604052807f0ef915f0ac120b876abccceb344a1d36bad3f3c5ab91a8ddcbec2e060d8befac815260200160008152602001600081526020016000815250815260200160405180608001604052807f1797130f4b7a3e1777eb757bc6f287f6ab0fb85f6be63b09f3b16ef2b1405d3881526020017f0a76225dc04170ae3306c85abab59e608c7f497c20156d4d36c668555decc6e581526020017f1fffb9ec1992d66ba1e77a7b93209af6f8fa76d48acb664796174b5326a31a5c81526020017f25721c4fc15a3f2853b57c338fa538d85f8fbba6c6b9c6090611889b797b9c5f815250815260200160405180608001604052807f0c817fd42d5f7a41215e3d07ba197216adb4c3790705da95eb63b982bfcaf75a81526020017f13abe3f5239915d39f7e13c2c24970b6df8cf86ce00a22002bc15866e52b5a9681526020017f2106feea546224ea12ef7f39987a46c85c1bc3dc29bdbd7a92cd60acb4d391ce81526020017f21ca859468a746b6aaa79474a37dab49f1ca5a28c748bc7157e1b3345bb0f959815250815260200160405180608001604052807f05ccd6255c1e6f0c5cf1f0df934194c62911d14d0321662a8f1a48999e34185b81526020017f0f0e34a64b70a626e464d846674c4c8816c4fb267fe44fe6ea28678cb09490a481526020017f0558531a4e25470c6157794ca36d0e9647dbfcfe350d64838f5b1a8a2de0d4bf81526020017f09d3dca9173ed2faceea125157683d18924cadad3f655a60b72f5864961f1455815250815260200160405180608001604052807f0328cbd54e8c0913493f866ed03d218bf23f92d68aaec48617d4c722e5bd433581526020017f2bf07216e2aff0a223a487b1a7094e07e79e7bcc9798c648ee3347dd5329d34b81526020017f1daf345a58006b736499c583cb76c316d6f78ed6a6dffc82111e11a63fe412df81526020017f176563472456aaa746b694c60e1823611ef39039b2edc7ff391e6f2293d2c404815250815250815250905090565b6040805160028082526060820183526000928392919060208301908036833701905050905083816000815181106125af576125af6130db565b60200260200101818152505082816001815181106125cf576125cf6130db565b602002602001018181525050610f21858260026000612612565b8051156125f95780518082602001fd5b604051630a12f52160e11b815260040160405180910390fd5b600080612629612623865160401b90565b87612698565b905060005b8551811015612673578481101561266b5761266b868281518110612654576126546130db565b60200260200101518361273a90919063ffffffff16565b60010161262e565b5082156126855761268581600161273a565b61268e816127c7565b9695505050505050565b6126a0612edf565b60006040518060c0016040528085815260200160405180606001604052806000815260200160008152602001600081525081526020016040518060800160405280600081526020016000815260200160008152602001600081525081526020016000815260200160001515815260200184815250905083816040015160036004811061272e5761272e6130db565b60200201529392505050565b8160800151158015612750575060038260600151145b1561276f5761275e826128df565b506020820151526001606090910152565b816080015115801561278657506003826060015114155b15610564578082602001518360600151600381106127a6576127a66130db565b6020020152606082018051600191906127c09083906130f1565b9052505050565b600081608001516128365760006127dd836128df565b60016080850152905060005b600381101561282c57818160038110612804576128046130db565b60200201518460200151826003811061281f5761281f6130db565b60200201526001016127e9565b5050600360608301525b60208201515160015b600381101561289f578360600151811015612897578360200151816003811061286a5761286a6130db565b6020020151846020015160018361288191906130b1565b60038110612891576128916130db565b60200201525b60010161283f565b506001836060018181516128b391906130b1565b9052506020830151606084015160009190600381106128d4576128d46130db565b602002015292915050565b6128e7612f21565b60005b6003811015612924578260600151811061291c57600083602001518260038110612916576129166130db565b60200201525b6001016128ea565b5060005b6003811015612993576129708360200151826003811061294a5761294a6130db565b602002015184604001518360048110612965576129656130db565b602002015190612a22565b83604001518260048110612986576129866130db565b6020020152600101612928565b506129b382604001518360a00151600001518460a0015160200151612a4f565b6040808401919091528051606081018252600080825260208201819052918101829052905b6003811015612a1b57836040015181600481106129f7576129f76130db565b6020020151828260038110612a0e57612a0e6130db565b60200201526001016129d8565b5092915050565b60007f30644e72e131a029b85045b68181585d2833e84879b9709143e1f593f00000018284089392505050565b612a57612f3f565b600060405180608001604052806000815260200160008152602001600081526020016000815250905060005b6004811015612ac257858160048110612a9e57612a9e6130db565b6020020151828260048110612ab557612ab56130db565b6020020152600101612a83565b50612acc81612bbd565b6000612ada60026008613248565b905060005b81811015612b0c57612af2838683612cb7565b612afb83612d24565b612b0483612bbd565b600101612adf565b506000612b1a6038836130f1565b9050815b81811015612b7057612b49868260408110612b3b57612b3b6130db565b602002015151856000612965565b8452612b5c8460005b6020020151612d64565b8452612b688488612d87565b600101612b1e565b506000612b7f603860086130f1565b9050815b81811015612bb057612b96858883612cb7565b612b9f85612d24565b612ba885612bbd565b600101612b83565b5092979650505050505050565b6000612bd28260016020020151836000612965565b90506000612be98360036020020151846002612965565b90506000612c008460016020020151856001612965565b9050612c0c8183612a22565b90506000612c238560036020020151866003612965565b9050612c2f8185612a22565b90506000612c3d8480612a22565b9050612c498180612a22565b9050612c558183612a22565b90506000612c638680612a22565b9050612c6f8180612a22565b9050612c7b8185612a22565b90506000612c898483612a22565b90506000612c978685612a22565b918952506020880191909152604087015260609095019490945250505050565b60005b600481101561072557612d05838360408110612cd857612cd86130db565b60200201518260048110612cee57612cee6130db565b6020020151858360048110612965576129656130db565b848260048110612d1757612d176130db565b6020020152600101612cba565b60005b600481101561056457612d45828260048110612b5257612b526130db565b828260048110612d5757612d576130db565b6020020152600101612d27565b600080612d718380612e4f565b9050610efc83612d818380612e4f565b90612e4f565b6000805b6004811015612dbf57612db5848260048110612da957612da96130db565b60200201518390612a22565b9150600101612d8b565b5060005b600481101561072557612e03838260048110612de157612de16130db565b6020020151858360048110612df857612df86130db565b602002015190612e4f565b848260048110612e1557612e156130db565b6020020152612e3082858360048110612965576129656130db565b848260048110612e4257612e426130db565b6020020152600101612dc3565b60007f30644e72e131a029b85045b68181585d2833e84879b9709143e1f593f00000018284099392505050565b8260028101928215612eaa579160200282015b82811115612eaa578251825591602001919060010190612e8f565b50612eb6929150612f5d565b5090565b6040518060400160405280612ecd612f3f565b8152602001612eda612f72565b905290565b6040518060c0016040528060008152602001612ef9612f21565b8152602001612f06612f3f565b81526000602082018190526040820152606001612eda612eba565b60405180606001604052806003906020820280368337509192915050565b60405180608001604052806004906020820280368337509192915050565b5b80821115612eb65760008155600101612f5e565b6040518061080001604052806040905b612f8a612f3f565b815260200190600190039081612f825790505090565b600060208284031215612fb257600080fd5b5035919050565b80356001600160a01b0381168114612fd057600080fd5b919050565b60008060408385031215612fe857600080fd5b612ff183612fb9565b946020939093013593505050565b60008060006040848603121561301457600080fd5b83359250602084013567ffffffffffffffff81111561303257600080fd5b8401601f8101861361304357600080fd5b803567ffffffffffffffff81111561305a57600080fd5b8660208260051b840101111561306f57600080fd5b939660209190910195509293505050565b60006020828403121561309257600080fd5b610d0882612fb9565b634e487b7160e01b600052601160045260246000fd5b81810381811115610d0b57610d0b61309b565b8082028115828204841417610d0b57610d0b61309b565b634e487b7160e01b600052603260045260246000fd5b80820180821115610d0b57610d0b61309b565b60006020828403121561311657600080fd5b81518015158114610efc57600080fd5b6001815b6001841115613161578085048111156131455761314561309b565b600184161561315357908102905b60019390931c92800261312a565b935093915050565b60008261317857506001610d0b565b8161318557506000610d0b565b816001811461319b57600281146131a5576131c1565b6001915050610d0b565b60ff8411156131b6576131b661309b565b50506001821b610d0b565b5060208310610133831016604e8410600b84101617156131e4575081810a610d0b565b6131f16000198484613126565b80600019048211156132055761320561309b565b029392505050565b6000610d088383613169565b6000825160005b8181101561323a5760208186018101518583015201613220565b506000920191825250919050565b60008261326557634e487b7160e01b600052601260045260246000fd5b50049056fea2646970667358221220c246d5313b36e3b313c3ae9d483e0dd89d1d5940b90de58172887f29e39bdfd264736f6c634300081b0033",
  "devdoc": {
    "errors": {
      "AddressEmptyCode(address)": [
        {
          "details": "There's no code at `target` (it is not a contract)."
        }
      ],
      "AddressInsufficientBalance(address)": [
        {
          "details": "The ETH balance of the account is not enough to perform the operation."
        }
      ],
      "FailedInnerCall()": [
        {
          "details": "A call to an address target failed. The target may have reverted."
        }
      ],
      "OwnableInvalidOwner(address)": [
        {
          "details": "The owner is not a valid owner account. (eg. `address(0)`)"
        }
      ],
      "OwnableUnauthorizedAccount(address)": [
        {
          "details": "The caller account is not authorized to perform an operation."
        }
      ],
      "SafeERC20FailedOperation(address)": [
        {
          "details": "An operation with an ERC20 token failed."
        }
      ]
    },
    "kind": "dev",
    "methods": {
      "owner()": {
        "details": "Returns the address of the current owner."
      },
      "renounceOwnership()": {
        "details": "Leaves the contract without owner. It will not be possible to call `onlyOwner` functions. Can only be called by the current owner. NOTE: Renouncing ownership will leave the contract without an owner, thereby disabling any functionality that is only available to the owner."
      },
      "stakeAndRegister(uint256,uint256[])": {
        "details": "All tokens go directly to serverClaimable — the caller (usually CLAWDRouter)      is responsible for sending the correct amount. No pricePerCredit check here.",
        "params": {
          "amount": "Total tokens to pay",
          "commitments": "One commitment per credit"
        }
      },
      "transferOwnership(address)": {
        "details": "Transfers ownership of the contract to a new account (`newOwner`). Can only be called by the current owner."
      }
    },
    "title": "APICredits",
    "version": 1
  },
  "userdoc": {
    "kind": "user",
    "methods": {
      "depth()": {
        "notice": "Alias for tree.depth (backwards compat)."
      },
      "getTreeData()": {
        "notice": "Backwards-compatible view: returns (size, depth, root)."
      },
      "getZeroHash(uint256)": {
        "notice": "Returns the Poseidon2 zero hash at the given level."
      },
      "root()": {
        "notice": "Alias for tree.root (backwards compat)."
      },
      "setClaimRecipient(address)": {
        "notice": "Update the revenue recipient. Owner only."
      },
      "setPricePerCredit(uint256)": {
        "notice": "Update the price per credit. Owner only."
      },
      "stakeAndRegister(uint256,uint256[])": {
        "notice": "Pay tokens and register commitments in one transaction."
      },
      "treeSize()": {
        "notice": "Alias for tree.numberOfLeaves (backwards compat)."
      }
    },
    "notice": "Private anonymous LLM API credits using ZK proofs + ERC-20 token staking. Token-agnostic and forkable — accepts any ERC-20 set at deploy time. PRICE_PER_CREDIT is a static constructor param. Uses zk-kit imt.sol's BinaryIMTData struct with a Poseidon2 hash adapter (Poseidon2IMT library). This matches the Noir circuit's binary_merkle_root exactly — every level hashes two children, using precomputed zero hashes for empty subtrees. Economic model:   stake()    → tokens sit in stakedBalance (user CAN withdraw)   register() → tokens move to serverClaimable (user CANNOT touch again)   api_call() → burns nullifier offchain (no token movement)",
    "version": 1
  },
  "storageLayout": {
    "storage": [
      {
        "astId": 8,
        "contract": "contracts/APICredits.sol:APICredits",
        "label": "_owner",
        "offset": 0,
        "slot": "0",
        "type": "t_address"
      },
      {
        "astId": 2483,
        "contract": "contracts/APICredits.sol:APICredits",
        "label": "pricePerCredit",
        "offset": 0,
        "slot": "1",
        "type": "t_uint256"
      },
      {
        "astId": 2487,
        "contract": "contracts/APICredits.sol:APICredits",
        "label": "stakedBalance",
        "offset": 0,
        "slot": "2",
        "type": "t_mapping(t_address,t_uint256)"
      },
      {
        "astId": 2489,
        "contract": "contracts/APICredits.sol:APICredits",
        "label": "claimRecipient",
        "offset": 0,
        "slot": "3",
        "type": "t_address"
      },
      {
        "astId": 2491,
        "contract": "contracts/APICredits.sol:APICredits",
        "label": "serverClaimable",
        "offset": 0,
        "slot": "4",
        "type": "t_uint256"
      },
      {
        "astId": 2494,
        "contract": "contracts/APICredits.sol:APICredits",
        "label": "tree",
        "offset": 0,
        "slot": "5",
        "type": "t_struct(BinaryIMTData)1546_storage"
      },
      {
        "astId": 2498,
        "contract": "contracts/APICredits.sol:APICredits",
        "label": "commitmentUsed",
        "offset": 0,
        "slot": "11",
        "type": "t_mapping(t_uint256,t_bool)"
      }
    ],
    "types": {
      "t_address": {
        "encoding": "inplace",
        "label": "address",
        "numberOfBytes": "20"
      },
      "t_array(t_uint256)2_storage": {
        "base": "t_uint256",
        "encoding": "inplace",
        "label": "uint256[2]",
        "numberOfBytes": "64"
      },
      "t_bool": {
        "encoding": "inplace",
        "label": "bool",
        "numberOfBytes": "1"
      },
      "t_mapping(t_address,t_uint256)": {
        "encoding": "mapping",
        "key": "t_address",
        "label": "mapping(address => uint256)",
        "numberOfBytes": "32",
        "value": "t_uint256"
      },
      "t_mapping(t_uint256,t_array(t_uint256)2_storage)": {
        "encoding": "mapping",
        "key": "t_uint256",
        "label": "mapping(uint256 => uint256[2])",
        "numberOfBytes": "32",
        "value": "t_array(t_uint256)2_storage"
      },
      "t_mapping(t_uint256,t_bool)": {
        "encoding": "mapping",
        "key": "t_uint256",
        "label": "mapping(uint256 => bool)",
        "numberOfBytes": "32",
        "value": "t_bool"
      },
      "t_mapping(t_uint256,t_uint256)": {
        "encoding": "mapping",
        "key": "t_uint256",
        "label": "mapping(uint256 => uint256)",
        "numberOfBytes": "32",
        "value": "t_uint256"
      },
      "t_struct(BinaryIMTData)1546_storage": {
        "encoding": "inplace",
        "label": "struct BinaryIMTData",
        "members": [
          {
            "astId": 1529,
            "contract": "contracts/APICredits.sol:APICredits",
            "label": "depth",
            "offset": 0,
            "slot": "0",
            "type": "t_uint256"
          },
          {
            "astId": 1531,
            "contract": "contracts/APICredits.sol:APICredits",
            "label": "root",
            "offset": 0,
            "slot": "1",
            "type": "t_uint256"
          },
          {
            "astId": 1533,
            "contract": "contracts/APICredits.sol:APICredits",
            "label": "numberOfLeaves",
            "offset": 0,
            "slot": "2",
            "type": "t_uint256"
          },
          {
            "astId": 1537,
            "contract": "contracts/APICredits.sol:APICredits",
            "label": "zeroes",
            "offset": 0,
            "slot": "3",
            "type": "t_mapping(t_uint256,t_uint256)"
          },
          {
            "astId": 1543,
            "contract": "contracts/APICredits.sol:APICredits",
            "label": "lastSubtrees",
            "offset": 0,
            "slot": "4",
            "type": "t_mapping(t_uint256,t_array(t_uint256)2_storage)"
          },
          {
            "astId": 1545,
            "contract": "contracts/APICredits.sol:APICredits",
            "label": "useDefaultZeroes",
            "offset": 0,
            "slot": "5",
            "type": "t_bool"
          }
        ],
        "numberOfBytes": "192"
      },
      "t_uint256": {
        "encoding": "inplace",
        "label": "uint256",
        "numberOfBytes": "32"
      }
    }
  }
}